:020000040000FA
:0600000002011A0230F9B2
:03002B000237CACF
:0300330002379FF2
:0300530002316F08
:03006B000237F861
:10008300022F4FE5C754F84401F5C7790122000058
:100093000080FB120086B90003020104E479217891
:1000A30008B800028004F709D8FCE479297802B87B
:1000B30000028004F709D8FCE490028178BB791729
:1000C3008002F0A3D8FCD9FA781A90014A7A01BACF
:1000D30000028007E493A3F608DAF97A3B7B1990D0
:1000E300014B781379058015E493A3AD82AE838A1F
:1000F300828B83F0A3AA82AB838D828E83D8E9D9C6
:10010300E775826C7583D2740512012C7582917523
:100113008300740012012C75D00075813F7518811E
:10012300751902759F00020096C09FF59FE473D076
:100133009F22D083D082C09FE493C0E0740193C018
:10014300E0740293F59F220101070D0743073D0762
:10015300FF0000B4000028002800283075A000A08C
:1001630000A000A00000080008E001F0001000104B
:10017300001000100010001000500050005000103C
:10018300001000D0070000000000000F0001000570
:1001930000307507001000010081FF00000000FF20
:1001A300FFFF81089F088708C308FF0202020802B5
:1001B3005000A0000000E8030292960100006A9636
:1001C3000298960100009E19029E960100000A04FF
:1001D3000298960100009F1902A0960100002004D6
:1001E300029896010000A01902A2960100002204C1
:1001F300029896010000A11902A4960800002304A6
:10020300029896010000A21902A696010000A31904
:10021300FFFF0100FF2002929601000067960298FB
:1002230096010000081A02B8960000000000029C24
:10023300960300005304170009110911091109114C
:1002430009110911091109110911091109110911DB
:1002530009116D138B136713B114C314AB1402028A
:1002630002020202020202010D00000010010292CA
:10027300960100006496029896010000511A0278D4
:1002830096010000A20E029896010000521A027A0B
:10029300960100009792029896010000531A027C7F
:1002A300960100002D92029896010000541A027ED6
:1002B30096010000DF90029896010000551A028013
:1002C30096010000CD90029896010000561A028212
:1002D30096010000BB90029896010000571A028411
:1002E300960100009790029896010000581A028820
:1002F300960100003B92029896010000591A028A67
:10030300960100005A1A0401E803057710020A0A4D
:10031300DF16FFFFFF000130750302010600000036
:1003230000000000000000000000000000000000CA
:10033300000000000000000000FFFF0600800CE842
:1003430003013FFEFF0101010201060302F0FF0268
:1003530001061AFF4C000215E2C56DB5DFFB48D25A
:10036300B060D0F5A71096E000010002CD651B6BCD
:100373001B771B7D1B711B0A436861726163746584
:100383007269737469632031000243686172616347
:10039300746572697374696320320008436861721B
:1003A3006163746572697374696320330010436811
:1003B30061726163746572697374696320340002E6
:1003C300436861726163746572697374696320352C
:1003D300001643686172616374657269737469635B
:1003E30020360010436861726163746572697374C7
:1003F30069632037000292960100006D9602989679
:100403000100006A1B02AA96030000FE18029A96D6
:100413000100006B1B0298960100007C1B02AC9646
:10042300010000FF18029A960100007D1B029896B6
:100433000100008E1B02AE960200000019029A967C
:100443000100008F1B029896010000A01B02B096CA
:100453000000000119029C960300000219029A96FB
:10046300010000A11B029896010000B21B02B29684
:100473000400000419029A96010000B31B02989627
:10048300010000C41B02B4960300000919029C96E4
:100493000300001E19029A96010000C51B029896DC
:1004A300010000D61B02B6960000002019029C969C
:1004B3000300003519029A96010000D71B0100B012
:1004C300423BAAB83F0000003F8C906339AA0CA3BB
:1004D3003A00941E3C8042633DCFFE753E15723157
:1004E3003F0000803FF304353F8096184B30313294
:1004F3003334353637383941424344454600286E54
:10050300756C6C20706F696E7465722900303132BE
:1005130033343536373839616263646566003F3F8B
:100523003F000000807FF9021550B743BA5100E73E
:10053300DB2E0000A040000080BF2292D43EDD9B52
:100543002A3F0400004000000000FFFF7F7FFFFF01
:100553007FFF010080341872313F1201354AB7051D
:1005630012013531B8051201352BB905120135FDDC
:10057300B40512013510B50512013531B505120167
:10058300359CB505120135DDB505120135FEB505FE
:100593001201353FB605120135D7B6051201351FD5
:1005A300B70512013533A10512013546A105120124
:1005B3003577A105120135B1A1051201350AA2054E
:1005C30012013551A20512013599A205120135C850
:1005D300A205120135F7A2051201352EA30512015A
:1005E3003575A3051201358EA305120135E3A30565
:1005F300120135FCA3051201354AA4051201358405
:10060300A405120135B6DF03120135B9E003120167
:1006130035E6E00312013537E1031201355AE103F0
:100623001201356CE1031201356FE103120135AD9F
:10063300E10312013521E2031201358DE2031201B8
:100643003555E30312013571E303120135A8E303C2
:10065300120135E2E30312013579E403120135CBCC
:10066300E403120135FCE4031201352DE503120105
:10067300353AE503120135A4E503120135A7E50375
:10068300120135B4E503120135B7E5031201350E46
:10069300E60312013511E6031201354AE60312019E
:1006A300354DE60312013581E60312013584E60375
:1006B300120135D8E60312013521E7031201353162
:1006C300E70312013564E70312013571E7031201F1
:1006D3003574E703120135DCE703120135DEE80365
:1006E30012013582E903120135EBE90312013529C1
:1006F300EA031201357CF60212013579F702120181
:10070300350FF8021201355AF802120135BEF8020C
:1007130012013548F90212013501FA02120135239B
:10072300FD02120135A0FE02120135C3FE021201C1
:1007330035458D05120135EA8E051201350A8F05FF
:100743001201352B90051201357E90051201358B70
:100753009105120135B39105120135E0910512019E
:1007630035189205120135769205120135C29205AC
:10077300120135299305120135699305120135A636
:100783009305120135D493051201357E94051201A8
:1007930035889405120135959405120135C89405E1
:1007A300120135D49405120135EC9405120135F686
:1007B300940512013544CD0512013552CD051201C0
:1007C300356ACD0512013582CD0512013599CD0566
:1007D300120135D7E40212013581E5021201359485
:1007E300E60212013510E7021201352EE80212016A
:1007F300356AE80212013505E902120135E9E90219
:10080300120135ACEA0212013524EB02120135B2B2
:10081300EC0212013523ED02120135DDED02120166
:1008230035CFEE021201350FEF02120135C3EF028D
:10083300120135F5EF02120135EBF10212013532E7
:10084300F20212013550F202120135B6F202120120
:100853003585F30212013549F40212013568F602B7
:1008630012013572F6021201357EBE04120135689B
:10087300BF0412013513C00412013564C004120110
:100883003514C10412013585C1041201356AC2044D
:100893001201359EC20412013597C304120135D4E7
:1008A300C304120135B0C404120135EFC4041201AC
:1008B300350BC50412013581BD0512013505BE0591
:1008C30012013530BE051201354ABF0512013584C8
:1008D30095051201359A9505120135B89505120152
:1008E30035C99605120135D39605120135FE9705D4
:1008F300120135F598051201356299051201356C1F
:10090300990512013537CC041201356DCD0412015E
:1009130035E7CD0412013517CE041201352ACE0472
:1009230012013581CE0412013596D0041201352E01
:100933009602120135DF9602120135FB960212016F
:1009430035C49702120135DE9702120135E9970289
:10095300120135BF98021201359C99021201352C00
:100963009A02120135E39A02120135F19D02120136
:1009730035E09F0212013592A0021201355BA102FC
:10098300120135A0A4021201354AA50212013573E2
:10099300A6021201352FA802120135CFA8021201B7
:1009A300351DA9021201355CA9021201352FAA02D5
:1009B30012013563AA02120135F0AA02120135436E
:1009C300D202120135CFD20212013533D402120101
:1009D300353FD4021201357AD402120135E9D4022B
:1009E300120135F2D502120135FBD602120135C2CE
:1009F300D7021201351FD9021201353DD902120166
:100A0300355AD90212013507DA0212013584DA02A6
:100A1300120135ACDA0212013576DD021201357BA3
:100A2300DD0212013594DF02120135E2DF02120109
:100A33003552E00212013590E0021201356CE102F9
:100A43001201352CE20212013578E2021201357BE4
:100A5300E202120135BFE20212013507E30212017D
:100A63003546E30212013568E3021201359CE302C5
:100A7300120135FFE30212013514ED041201351D95
:100A8300ED041201352BED041201357EED04120144
:100A9300359DED04120135E2ED0412013526EF0414
:100AA300120135C1EF0412013505F0041201352F8F
:100AB300F0041201359EF004120135E4F004120132
:100AC300355BF1041201350CF204120135BC9601B9
:100AD300120135CC96011201356D9701120135C90A
:100AE3009701120135869801120135A2990112016D
:100AF30035D49901120135039A01120135B09B01D6
:100B0300120135279E0112013597A0011201358983
:100B1300A10112013582A20112013589A40112013A
:100B2300357DA701120135ACA801120135B0AA0128
:100B3300120135C0AB011201354FAD011201354031
:100B4300AE011201358EAE01120135FDAE01120167
:100B53003521AF0112013572AF0112013513B40112
:100B630012013514B50112013575B501120135A015
:100B7300B50112013566B60112013519D804120107
:100B83003523D80412013568D8041201357CD80402
:100B93001201350CD90412013545D90412013580EF
:100BA300D904120135A9D904120135F7D904120168
:100BB300350CDA0412013521DA0412013536DA0470
:100BC30012013579DA041201358EDA04120135F98E
:100BD300DA041201350DDB0412013521DB041201A5
:100BE3003536DB0412013570DB0412013594DB0466
:100BF300120135C0DB04120135F7DB04120135594C
:100C0300DC04120135CBDC041201350EDD041201C4
:100C13003538DD0412013563DD04120135E4FE03CA
:100C2300120135B5BC0312013598BD03120135130A
:100C3300BE031201354EBE031201359FBF031201DD
:100C43003528C00312013540C203120135D2C40353
:100C530012013584C50312013590C6031201350311
:100C6300C8031201355CC803120135D6E204120130
:100C73003519E3041201359DE30412013570E404D0
:100C830012013547E704120135F8AF05120135A506
:100C9300B005120135B2B105120135F1B1051201EA
:100CA300354BB20512013561C305120135C4C305C5
:100CB30012013561C40512013596C405120135C60A
:100CC300C405120135E7C40512013522C505120119
:100CD3003542C5051201351EF204120135AAF2048C
:100CE30012013569F30412013581F4041201359BB5
:100CF300F60412013505C9031201352AC90312018D
:100D030035F7C903120135CBCA0312013538CB03BA
:100D13001201358ECB031201352ACC031201355E45
:100D2300CD0312013539CE0312013598CE031201DA
:100D33003524CF0312013592CF031201351ED003A0
:100D430012013521D0031201356BD003120135DDB9
:100D5300D0031201356FD10312013510D2031201F2
:100D63003530D20312013578D203120135C1D203D3
:100D7300120135DDD20312013503D3031201357D90
:100D8300D3031201358BD3031201351AD403120195
:100D93003583D40312013569FB04120135EEFB04DC
:100DA30012013530FC0412013514FD0412013581A2
:100DB300FD04120135C5FD0412013509FE041201BB
:100DC3003536FE041201355EFE0412013596FE042B
:100DD300120135D4FE04120135FBFE0412013575F0
:100DE300FF04120135BFFF04120135D2B60112010F
:100DF30035CBB801120135B7BB011201350BBC016C
:100E030012013536BC0112013510BD011201354FF7
:100E1300BD0112013596BD01120135A9BD011201B3
:100E230035EABD0112013517BE0112013565BE0158
:100E3300120135A4BE01120135CFBE0112013522C4
:100E4300BF01120135B1BF011201358FC201120179
:100E530035AAC401120135E8C4011201355DC6018A
:100E6300120135A2C60112013596C701120135AF31
:100E7300C90112013511CA0112013562CA011201F9
:100E8300357DCF01120135CCCF0112013512D001CE
:100E9300120135FAD101120135C8D301120135CD42
:100EA300D301120135A7D40112013520D501120156
:100EB3003550D60112013562D60112013552AD0506
:100EC300120135C4AD051201351AAE051201355EA6
:100ED300AE051201357EAE05120135CBAE0512010A
:100EE3003513AF0512013566AF05120135B7AF05EE
:100EF3001201359793041201351694041201350F2C
:100F03009A04120135159B04120135889C041201C1
:100F1300351F9D0412013585D601120135CED60148
:100F2300120135FBD6011201352DD70112013539D6
:100F3300D70112013545D7011201355CD7011201E2
:100F43003537D80112013595D801120135CAD801B8
:100F5300120135FBD90112013548DA011201358E30
:100F6300DA01120135FADA011201359EDB011201B1
:100F73003554DC01120135B3DC0112013524DD01E6
:100F830012013582DD01120135B4DE011201351C77
:100F9300E001120135E6E001120135F3E00112012F
:100FA3003535E10112013545E10112013569E101F0
:100FB3001201356CE10112013558E201120135F4D9
:100FC300E2011201358DE30112013524E40112011E
:100FD3003551E401120135AFE401120135F6E401A4
:100FE30012013546E50112013596E5011201350876
:100FF300E601120135A3E6011201354EE7011201A4
:1010030035EDE7011201356BE801120135B2E80154
:1010130012013516E90112013545E901120135DCEA
:10102300E901120135EEEB0112013532EC01120137
:10103300357DEC0112013503ED011201358DED0112
:10104300120135A6EE011201352CEF0112013551C3
:10105300EF01120135A8EF01120135BDEF011201B5
:101063003505F00112013578F001120135BDF001AB
:10107300120135C6F10112013577F201120135D59E
:10108300F20112013531F3011201354AF301120164
:1010930035499D041201359D9D04120135A99D0416
:1010A300120135739E04120135A09E04120135CE40
:1010B3009E041201353A9F04120135709F041201F8
:1010C30035A99F04120135C19F0412013516A004EE
:1010D3001201352FA00412013574A00412013587C3
:1010E300A004120135A1A004120135B7A004120116
:1010F30035D5A10412013500A304120135EAA30476
:10110300120135DBA404120135F47F00120135F915
:10111300E7041201357CEB04120135C9EC0412011A
:10112300357AF3011201354DF60112013553F601FB
:10113300120135E3F80112013546FB01120135D2E4
:10114300F60412013569F70412013527F804120178
:101153003551F8041201352BFA0412013530FB0422
:101163001201350080021201353280021201354F1F
:101173008C02120135A08D02120135A98E021201D3
:101183003528900212013513910212013562910242
:101193001201357C9102120135BE9102120135C94B
:1011A30091021201351092021201351992021201B5
:1011B30035C592021201359E9302120135E5930261
:1011C3001201354D94021201358F9402120135BD7F
:1011D3009402120135FA94021201353FBF02120143
:1011E300350AC30212013510C302120135B4C90214
:1011F30012013508CE02120135F1D1021201356018
:101203009D05120135D69D05120135EC9D05120190
:10121300357C9E05120135B99E05120135F39E05F5
:101223001201352D9F05120135A09F05120135E1ED
:101233009F05120135EA9F05120135F69F0512013C
:101243003515A0051201353FA00512013554A0053F
:101253001201357CA005120135DEA005120135050A
:10126300A1051201356CC5041201357FC5041201B5
:101273003599C504120135C6C5041201350CC604DF
:101283001201353FC6041201357DC604120135E251
:10129300C604120135F7C60412013502C704120150
:1012A300350FC70412013526C70412013534C704AC
:1012B30012013543C70412013558C7041201356DB5
:1012C300C70412013578C70412013584C70412011B
:1012D3003591C704120135A4C704120135AFC70401
:1012E300120135D4C70412013578C80412013588B8
:1012F300C8041201359DC804120135B2C804120195
:1013030035CCC804120135E9C80412013506C904F5
:1013130012013511C904120135BDC9041201359EEC
:10132300CA04120135C3CA04120135CECA0412011C
:1013330035E3CA04120135F7CA0412013558CB0448
:101343001201355ECB0412013564CB041201356AF8
:10135300CB0412013582CB04120135B5CB04120143
:10136300354FEA0312013571EA0312013539EB03F4
:10137300120135F3ED0312013509EF031201352A8A
:10138300F00312013504F103120135B3F103120125
:101393003532AF03120135C9AF0312013561B00312
:1013A30012013551B10312013588B1031201359B86
:1013B300B10312013509B203120135A4B3031201BB
:1013C30035CBB3031201356DB403120135A2B40357
:1013D300120135B3B4031201352CB5031201354D97
:1013E300B50312013565B503120135BDB60312010C
:1013F30035C6B80312013516BB0312013519BC03F8
:1014030012013568BC0312013596A003120135930E
:10141300A1031201357EA20312013588A203120132
:101423003592A203120135B4A203120135C0A203FF
:1014330012013512A40312013541A40312013571BF
:10144300A503120135B3A503120135DFA60312016B
:1014530035B5A70312013507A80312013566A803A2
:101463001201359DA803120135D8A8031201357363
:10147300AC031201358CAC031201350EAD0312011E
:10148300351CAD0312013571AD031201357FAD0378
:10149300120135ECAD031201355EAE03120135A422
:1014A300AE03120135A6D403120135C8D4031201C9
:1014B30035B2D60312013557DA031201359ADB032D
:1014C30012013574DC031201352EC70512013553A1
:1014D300C705120135C4C70512013595A6041201CB
:1014E300359EA604120135A7A604120135D8A70418
:1014F300120135F7A9041201352DAA04120135672B
:10150300AA041201359DAA04120135D7AA041201B7
:10151300350BAB0412013537AB0412013580AB0434
:10152300120135BAAB0412013502AC04120135586D
:10153300AC041201358DAC04120135E8AC04120180
:101543003522AD0412013573AD04120135A9AD0482
:10155300120135E3AD0412013511AE041201353425
:10156300AE0412013581D005120135ADD00512014B
:101573003508D10512013512D10512013522D105E5
:10158300120135C2AE0412013506AF04120135B49F
:10159300AF041201352CB0041201357EB0041201E0
:1015A300351EB1041201355AB104120135F4B104E8
:1015B30012013571B204120135CAB304120135E3C5
:1015C300B3041201351BB504120135AEB504120183
:1015D3003517B60412013583B6041201358A840522
:1015E300120135B18405120135E18405120135502C
:1015F300C50512013567C50512013596C5051201EA
:10160300351CC6051201352CD105120135405D008C
:101613001201355B60001201354B6200120135BDCA
:1016230062001201357B630012013526640012014A
:1016330035B664001201354565001201356F65004A
:10164300120135DC6500120135166B00120135A954
:101653006B00120135D86C001201353C6D0012018C
:1016630035F06D00120135A37000120135DD7000F5
:10167300120135477100120135A4710012013501C1
:1016830072001201355E72001201354973001201B6
:10169300358F7300120135DA7300120135FB7300C5
:1016A3001201355D7500120135787500120135FEA2
:1016B30076001201352B77001201356B770012018A
:1016C30035B17700120135CF77001201350D78005F
:1016D3001201354B7A00120135847A001201351B51
:1016E3007B00120135BB7B001201354E7C001201D9
:1016F30035C07C00120135017E001201358BDD04FB
:101703001201351FDE041201355EDF04120135E7D5
:10171300DF04120135BAE004120135E3E0041201DB
:10172300354AE104120135B2E10412013552CC0508
:1017330012013563CC0512013534CD05120135CDC7
:10174300A70512013598AA051201356FD4051201B8
:1017530035E4C805120135F4C8051201350EC90573
:101763001201350ACA05120135A6AA05120135412F
:10177300AB0512013537AD051201356EC1051201F6
:1017830035A4C10512013514C2051201353FC20546
:10179300120135A2C20512013512C30512013550DB
:1017A300C30512013553C305120135F6FF011201BA
:1017B30035F9FF011201350080051201352280053C
:1017C300120135B48005120135B28105120135A32A
:1017D30083051201350384051201356C840512015A
:1017E30035F87F001201355FB90512013503BB05DA
:1017F3001201356FBB05120135ED7F001201350A69
:10180300D4051201351AD40512013579BF05120129
:1018130035AABF05120135D4BF051201358FC005A6
:10182300120135AFC00512013507C105120135009C
:1018330080041201350E8004120135548004120114
:1018430035A78004120135EF800412013549810464
:101853001201356A81041201353E84041201354CAC
:101863008404120135A88404120135DB84041201B7
:1018730035EE84041201357985041201351286048C
:101883001201358F8604120135C8860412013550C2
:101893008704120135A78704120135048804120155
:1018A300351688041201354788041201355088041F
:1018B3001201359D8904120135357E0012013596DA
:1018C3007E00120135337F00120135997F0012012A
:1018D30035E988051201351C8905120135438A054E
:1018E300120135688A051201352D8B051201350960
:1018F3008C0512013510CA05120135DCCA05120127
:101903003596B205120135DBB2051201351BB3055D
:10191300120135B8B40512013529CE05120135443B
:10192300CE0512013554CE05120135B9CE0512018B
:1019330035F9CE05120135BDCF05120135D1890424
:10194300120135AD8A04120135F48A0412013531CE
:101953008B041201359D8B04120135F58B041201A2
:1019630035658C04120135358D041201351E8E0444
:10197300120135958E041201352A9004120135B5F2
:1019830090041201352491041201359C9104120133
:1019930035B39104120135DC92041201352E930400
:1019A3001201355DD2041201357DD2041201356D69
:1019B300D304120135B6D304120135D6D304120170
:1019C3003514D4041201356FD404120135ADD40497
:1019D300120135F7D4041201359FD70412013508DB
:1019E300D804120135E6AB02120135FFB002120131
:1019F30035F6B3021201351CB40212013545B402A7
:101A0300120135F7B402120135D8B602120135F3CB
:101A1300B7021201350CB80212013502BD021201E0
:101A2300353BBD021201357FBD021201358CBE026A
:101A33001201353838001201356C3800120135A710
:101A43003800120135193900120135E2390012014B
:101A530035F93900120135D53A00120135CA3E0075
:101A6300120135DA3E001201350B3F00120135DE5B
:101A73003F001201353F4000120135424000120180
:101A830035604000120135C74000120135A3420002
:101A93001201355A4300120135AC4300120135B32C
:101AA3004300120135CD4300120135DD430012011D
:101AB300351B44001201353444001201354B4400F8
:101AC300120135D74400120135F244001201351DCD
:101AD30055001201359A550012013587590012013C
:101AE300356690031201359A9103120135C79103AC
:101AF3001201351595031201354E95031201355F19
:101B030095031201357B96031201358C960312015E
:101B1300351C97031201352C9703120135F39B03F0
:101B2300120135959C03120135A39C03120135D094
:101B33009C03120135359D031201350D9F031201DC
:101B430035BC9F03120135A7F403120135F0F803E6
:101B530012013573FB03120135ACFB03120135BDD2
:101B6300FB03120135DCFB031201350BFD031201EC
:101B7300351CFD03120135A4FD0312013535FE03A7
:101B8300120135CAB604120135D8B704120135F56E
:101B9300B704120135CEB904120135F2BA041201A9
:101BA300358EBC04120135E6FF0212013551D4050E
:101BB300120135ECA40512013534CB05120135D7DA
:101BC300D20512013500800312013513850312017A
:101BD3003572BB0512013538D305120135B5D3056E
:101BE300120135769905120135D6D105120135005A
:101BF300D2051201357ED305120135E1D305120159
:101C03003533D405E066701008A3E066700A08A3B4
:101C1300E066700408A3E06622C008C3E096F508F6
:101C230008A3E096420808A3E096420808A3E096BA
:101C33004208A2D265D033E5087001D3D00822C38D
:101C4300E7960809E7960809E7960809E79622C385
:101C5300E09608A3E09608A3E09608A3E09622C0C6
:101C630008C3E096F50808A3E096420808A3E096A7
:101C7300420808A3E09645087001D3D0082208085B
:101C830008E630E71112253B121C99080808C644E0
:101C930080C618181822181818E9799EC608CAC6EB
:101CA30008CBC608CCC6C370207996CACBCC7019B2
:101CB300798ECBCC70137986CC700EF9802ACA3317
:101CC300CACB33CBCC33CC331930E7F2CCCBCA33CA
:101CD30050147004EA30E00DE4CA3ACACB3BCBCCD3
:101CE3003CCC500209C3E913C6CC182313C6CB1846
:101CF300C6CA18C6F922121D3920F01430E72B7416
:101D0300FFFCFBFA747F8022E4FCFBFA7480801AE8
:101D1300B48008BC00F2BB00EF800F50EBF9E4C3C2
:101D23009AFAE49BFBE49CFCE499C6CC18C6CB1856
:101D3300C6CA18C6F922E4C9C608CAC608CBC6D3A0
:101D4300330308CCC63392F0C3947F402E941840DB
:101D530019C9B90704CACBCC225025C309CA33CA4F
:101D6300CB33CBCC33CC33D9F422F4600DC9CCC301
:101D730013CB13CBCA13CAD9F6CC22E4FCFBFA2249
:101D830014FCFBFA22E62618461846184622E727D3
:101D930019471947194722181818E6084608700901
:101DA300E626087005E633F4220822191919E70913
:101DB30047097009E727097005E733F4220922E68A
:101DC300084608C3134608336002E633F422E709E2
:101DD3004709C3134709336002E733F422121DC2D4
:101DE3006025121DD16020121D887003021D910809
:101DF3000808E76670101819E766700A1819E7668D
:101E030070041819E76622F422121DC2601C121D09
:101E1300D16017121D887007121D917001D322C063
:101E2300D0121D917006D0D0B322C32233D0D0502C
:101E33001430E0F6C3E7960809E7960809E7960821
:101E430009E796B32220E0D5E6970809E697080943
:101E5300E6970809E697B322121DC2601B121DD133
:101E63006016121D887007121D91600CB322C0D03A
:101E7300121D917005D0D022C32233D0D05013301D
:101E8300E0EBC3E7960809E7960809E7960809E730
:101E9300962220E0E4E6970809E6970809E6970802
:101EA30009E6972200121DC2604F121DD16012E78E
:101EB300548066F6121D9A7011121D91703B090928
:101EC30009F4F618F618F618F622121DAE7015125C
:101ED3001D8808080860EAE6447FF618768018E44F
:101EE300F618F622121D886016121D917012E4F680
:101EF30008F608F608E65480F609090918181822A6
:101F0300EAC0E0EBC0E0ECC0E0EDC0E0E687F0A49F
:101F1300FBACF008E687F0A42CFCE435F0FA1809D2
:101F2300E687F0A42C4B60027401CA35F0FCE4335D
:101F3300FB09E687F0D2F7A42CCB35F0FC1908E6B1
:101F430087F0A42BCC35F0FBE433FD0819E687F0CA
:101F5300D2E7A42C4ACB35F0CD3400FC09E687F058
:101F6300D2E7A42DCC35F0FDE433FA0918E687F067
:101F7300D2F7A42CCD35F0CA3400FC08E687F0D2A2
:101F8300E7D2F7A42ACC35F07A7E20E70B0ACB33CD
:101F9300CBCD33CDCC33CC33CB3350147004ED30B5
:101FA300E00ED2F1E4CD3DCDCC3CCC3B5005DA057F
:101FB300C2F1EB547FC63308E63392F0FBE73309F3
:101FC300E733C39A502D2B70190C0D4C4D70151817
:101FD30006E608C333700D20F10AA2F013F6E418E5
:101FE300800B4024E4F630F002768018F618F618D9
:101FF300F68024D33B14501074FFA2F013F6187626
:1020030080E418F618F6800FA2F013F618E63303EF
:10201300F618ECF618EDF6D0E0FDD0E0FCD0E0FBCE
:10202300D0E0FA22121DD16046121DC2603DE9685C
:102033007008F618F618F618F622748067F712205F
:102043005B090909748067F722121DC2601D121D06
:10205300D17005191919801A121D9A701F121DAE1D
:10206300C37003E6673319191940071818182208B3
:10207300080874FFF618F618F618F622121DAE605B
:1020830017121D91702192F0121D8870195017209C
:10209300F014080808090909E7F61819E7F61819EA
:1020A300E7F61819E7F622121D8860E6E869701F43
:1020B3000808E62480F608E436F618547FB47F0C4B
:1020C300E654806007F6E418F618F622181822E999
:1020D300C6CC08C6CD08C6CE08C6CFC0E0E8C0E06F
:1020E300EAC0E0EBC0E009E9F809E7FA09E7FBE633
:1020F300F918E6F8C3EC98ED99EE9AEBC2E7F5F020
:10210300EFC2E795F0500E600CEBCFFBEACEFAE995
:10211300CDF9E8CCF8EAA2E7D2E7FAEB33FB13F503
:10212300F0EEA2E7D2E7FEEF33FFC5F013A2E730EC
:10213300E601B313C5F0C3C0E0C0F07F00C39BFB4F
:10214300605E9418600F401D14601AD0E023F9D02C
:10215300E0F802222D8AF0E9486003D2F0E4AFF000
:10216300FAF9F8803BEB30E40D89F0EA6003D2F032
:10217300E4AFF0F9CAF8EB30E30D88F0EF6002D278
:10218300F0AFF0E4CAC9F8EB54076014FBC3EA13D9
:10219300FAE913F9E813F8EF135002D2E0FFDBED8D
:1021A300D0E0C0E030E739C3E49FFFF5F0EC98FCE2
:1021B30042F0ED99FD42F0EE9AFE42F0D0E0F9D004
:1021C300E0F8E5F0607AE923F9EE20E742D80280EF
:1021D30067C3EF33FFEC33FCED33FDEE33FE80EAF0
:1021E300EC28FCED39FDEE3AFED0E023F9D0E0F81F
:1021F3004002801BC3EE13FEED13FDEC13FCEF1343
:102203005002D2E0FF08B800067F7F74FF802EEFF4
:102213003350178CF020F00260100CBC000C0DBD85
:1022230000080EBE000408E860DFE933E813FFEEA0
:102233002313FE4F4D4C8008E95480FFE4FEFDFC60
:10224300EE33EF33F47004FCFD7E80D0E0FBD0E08E
:10225300FAD0E0F8D0E0CFC618CEC618CDC618CC59
:10226300C6F922121DC2700418181822121DD1704B
:102273000D74FFF61819F61819F61819F622E75413
:102283008066F6121D88700F121D9170F014F60807
:10229300F608F608F680D1121D91700CF608F608C0
:1022A300768008E6447F80EC121DB1700C121D9DF0
:1022B30060BFE65480F6E480BB121D9D70051919BA
:1022C3001980A5E869700C763F18768018F618F621
:1022D300E8F922E6CDC0E018ECC0E0E633CD33CD1B
:1022E300D313F6E719FCE7191933CC33C3947F40B2
:1022F3000ECD9D502408E65480F6E418F6800FF4C2
:10230300043D14501408E6447FF6187680E418F66A
:1023130018F6D0E0FCD0E0FD22CCD313CCFD18E4BA
:10232300C6CBC0E018E4C6CAC0E00808ED08C6334F
:10233300E613F618E433C675F003C3CA97CA09CB8C
:1023430097CB199C40047D08802EBD000302240F07
:1023530016B6FF050606081618C3CA33CACB33CB15
:1023630033CA27CA09CB37CB193CC37D08803E1833
:102373007D0820E75CC633C6CA33CACB33CB33DD13
:10238300F1D5F0EB30E77BCA97CA09CB974ACB1953
:102393009C406F4B7025E620E0218066187D08C3C2
:1023A300CA97CA09CB97CB199CD3C633C6CA33CABB
:1023B300CB33CB3350C9DDE7D5F0E1D3E4C636C622
:1023C30008C636C608C636C608C636C618181880E4
:1023D30031C3CA97CA09CB97CB199CB34097C6336D
:1023E300C6CA33CACB33CB33DD34D5F02EC6A2E015
:1023F300C640C8CA27CA09CB37194A70BECB3CB4FA
:1024030080B90808E63308E633601F181818D0E0CF
:10241300FAD0E0FBD0E0FCD0E0FD22187D08CA270B
:10242300CA09CB37CB193CD3808013F618E4B67FA7
:1024330011F618B6FF0EF618C60470D20808768097
:1024430080CAF618F618F680C5080808EAC0E0EB5B
:10245300C0E086F0E7A4FA180986F0E7A42AFA1880
:102463000986F0E7A42AFA180986F0E7A42AFA19DC
:1024730086F0E7A4FBE5F02AFA190886F0E7A42B17
:10248300FBE5F03AFA190886F0E7A42BFBE5F03AEE
:10249300FA18180986F0E7A4C5F02BFBE43AFA19F9
:1024A30008E7C5F0C6A426F6E5F03BFBE43AFA18C4
:1024B30086F0E7A4F6E5F00826F6E43B08F6E43AEE
:1024C30008F6D0E0FBD0E0FA22E4CFC0E0E4CEC0CF
:1024D300E0E4CDC0E0E4CCC0E075F020E626F608E9
:1024E300E633F608E633F608E633F6181818EC3345
:1024F300FCED33FDEE33FEEF33FFC3EC9709ED97AD
:1025030009EE9709EF97191919400FFFEC97FC098A
:10251300ED97FD09EE97FE191906D5F0BFECF70903
:10252300EDF709EEF709EFF7191919D0E0FCD0E040
:10253300FDD0E0FED0E0FF22181818E4C396F60899
:10254300E496F608E496F608E496F6226016080880
:1025530008C6C313C618C613C618C613C618C613AF
:10256300C6D5E0EA22700908080822601618181870
:10257300C6C333C608C633C608C633C608C633C681
:10258300D5E0EA22E627F60809E637F60809E63732
:10259300F60809E637F622E026F608A3E036F60841
:1025A300A3E036F608A3E036F622E026F008A3E01F
:1025B30036F008A3E036F008A3E036F022C3E6972E
:1025C300F60809E697F60809E697F60809E697F686
:1025D30022C3E096F008A3E096F008A3E096F00883
:1025E300A3E096F022E657F60809E657F60809E64F
:1025F30057F60809E657F622E056F608A3E056F622
:1026030008A3E056F608A3E056F622E056F008A326
:10261300E056F008A3E056F008A3E056F022E06687
:10262300F608A3E066F608A3E066F608A3E066F6FC
:1026330022E0F608A3E0F608A3E0F608A3E0F622FA
:10264300E6F008A3E6F008A3E6F008A3E6F022E02C
:10265300FAA3E0FBA3E0FCA3E0FD22EAF0A3EBF086
:10266300A3ECF0A3EDF022E0F8A3E0F9A3E0FAA3D2
:10267300E0FB22E8F0A3E9F0A3EAF0A3EBF022CA1F
:10268300C0E0E6F0A308DAFAD0E0FA22CAC0E0E03C
:10269300A3C582CCC582C583CDC583F0A3C582CC37
:1026A300C582C583CDC583DAE6D0E0CA22C3E498E8
:1026B300F8E499F91226F18026C3E49AFAE49BFB25
:1026C300E920E7E91226F1E498F8E499F922C3E452
:1026D30098F8E499F91226F1E498F8E499F9C3E437
:1026E3009AFAE49BFB22EB20E7CFE920E7E0B9006D
:1026F30010BB0008E88AF084F8AAF022E4FBC8FAC9
:1027030022EB70227B10C833C8C933C9335007C3C7
:102713009AC3DBF280069A50012ADBEAC833F4C875
:10272300C933F4C9FA2275F008E4C833C8C933C9F8
:1027330033C99AC99B5004C92AC93BD5F0ECFBC8DD
:1027430033F4C8E4C9FA22600D08C6A2E713C61819
:10275300C613C6D5E0F322600C08C6C313C618C659
:1027630013C6D5E0F422700422600D18C6C333C625
:1027730008C633C6D5E0F41822251810AF08F5189B
:10278300400C15198008F51840021519D2AF220024
:10279300C0D0251810AF08F518500C05198008F59E
:1027A3001850020519D2AFD0D0222518F58210AFE8
:1027B30008F518400C15198008F51840021519D2B0
:1027C300AF851983222518F582E43519F58322256F
:1027D30018F8E43519F9222518FAE43519FB2225EE
:1027E30018FCE43519FD22E4732518C582C0E0E521
:1027F3001934FFC583C0E0E518C3958224F810AFF0
:10280300088583198582188008858319858218D2E3
:10281300AFCEF0A3E520F0A37808E608F0A3DEFA34
:10282300EFF0A3E58124FAF8E608F0A3E608F0A3A5
:10283300E608F0A30808E608F0A3E608F0A315816C
:102843001581D0E0FED0E0F8158115811581E8C02F
:10285300E0EEC0E0222518C582C0E0E51934FFC5CB
:1028630083C0E0E518C3958224F910AF0885831966
:102873008582188008858319858218D2AFCEF0A38C
:10288300E520F0A37808E608F0A3DEFAEFF0A3E56D
:102893008124FBF8E608F0A3E608F0A30808E6089D
:1028A300F0A3E608F0A315811581D0E0FED0E0F88F
:1028B30015811581E8C0E0EEC0E0228519838518F3
:1028C30082E0A3FEE0A3F5207808E0A3F608DFFA90
:1028D300E0A3FFE0A3C0E0E0A3C0E0E0A3C0E0E02A
:1028E300A3C0E0E0A3C0E010AF0885821885831978
:1028F3008008858218858319D2AFD083D0820201E4
:1029030032851983851882E0A3FEE0A3F5207808B9
:10291300E0A3F608DFFAE0A3FFE0A3C0E0E0A3C072
:10292300E0E0A3C0E0E0A3C0E010AF088582188513
:1029330083198008858218858319D2AFD083D0820A
:1029430022C0D02518C582C0E0E51934FFC583C075
:10295300E0E518C3958224F310AF088583198582B7
:10296300188008858319858218D2AFC8F0A3E9F0CF
:10297300A3EAF0A3EBF0A37908E709F0A3D8FAECF4
:10298300F0A3EDF0A3EEF0A3EFF0A3D0E0F0A3D01B
:10299300E0F0A3D0E0F0A3E520F0A3E5F0F0A3225C
:1029A300851983851882E0C0E0A3E0F9A3E0FAA3C8
:1029B300E0FBA37808E0F608A3DFFAE0FCA3E0FD60
:1029C300A3E0FEA3E0FFA3E0C0E0A3E0C0E0A3E038
:1029D300F5D0A3E0F520A3E0A3F5F010AF088583BD
:1029E300198582188008858319858218D2AFD08211
:1029F300D083D0E0F8D0E032740480067402800201
:102A03007401C0E0F4041227ADD0E01226822274D0
:102A130004800474028000CCC0E0EDC0E0E518C37C
:102A23009CCCAD1950011D10AF068C188D19800672
:102A33008C188D19D2AF12268FD0E0FDD0E0FC2286
:102A4300D083D082E9C0E0E493A3C386F0C5F095B8
:102A5300F0F908E493A386F0C5F095F0700BE493C6
:102A6300A3C3994005E9048002A3E475F002A425F9
:102A730082F582E5F03583F583D0E0F9E493A3C0D2
:102A8300E0E493C0E022D083D082ECC0E0EDC0E06C
:102A9300E493A3FCE493A3FDED4C600D122AD5EC63
:102AA30024FFFCED34FFFD80EFE493A3FCE493A348
:102AB300FDED4C600D122B14EC24FFFCED34FFFDF7
:102AC30080EFD0E0FDD0E0FCE493A3C0E0E493C04A
:102AD300E022C0E0C3E49396087401939618400F74
:102AE300E49366700808740193661870007019A364
:102AF300A3C3E49396087401939618A3A3400DD03F
:102B0300E0D0E0D0E0022AC5A3A3A3A3A3A3D0E00F
:102B130022C0E0C0F088F0E4936670080874019363
:102B230066187000A8F0A3A3700BD0F0D0E0D0E03B
:0C2B3300D0E0022AC5A3A3D0F0D0E0221D
:102B400074F6122858EAFEEBFF8C088D09EE243447
:102B5000F8E43FF9E8FCE9FD122C72E0FAEE2437C4
:102B6000F582E43FF583E0F88508F0A4C885F00A13
:102B70008509F0A4250AF9EA28F8E439F97A257BD1
:102B8000001226F1EA8C828D83F0FA131313541F7E
:102B9000F8EE28F8E43FF9E8245DF582E439F5839E
:102BA000E0C0E074075AF8D0E0B800028004C31314
:102BB000D8FCA2E05003EA8020EE2436F582E43F00
:102BC000F583E0F5F0EA84A8F0EE28F8E43FF9E8B0
:102BD0002438F582E439F583E0F97F03022904748F
:102BE000F5122858EAFEEBFFEE2434F582E43FF5B7
:102BF00083E0C0E0122C72D0E0F08E828F83A3A31A
:102C0000A3A3A3E0FAA3E0FB8E828F83A3A3A3A3D5
:102C1000A3A3A3E0C39AF508A3E09BF509EE247FE4
:102C2000F8E43FF9880A890B8882F583E064017033
:102C30002CEE2480F582E43FF583EA2401F8E43B9E
:102C4000F9E0687003A3E06970137C1A7D08EEFA5E
:102C5000EFFB121019850A82850B83E4F0AC08ADF6
:102C600009EEFAEFFB122B40E9F912375D7F0402FF
:102C70002904EE2435F582E43FF58322C082C08327
:102C8000851882851983E0F8A3E0F9C3EA9CEB9DDF
:102C90005010C3EC98ED99401BC3EA98EB9950147F
:102CA000800EC3EA98EB994007C3EC98ED99400475
:102CB000790180027900D083D08222EAC39CFAEBAA
:102CC0009DFB2274ED1228589004C3E0640860054F
:102CD000E06407702C9061C8E060269004F1E0F891
:102CE00074FF68601CE875F00DA4C8AAF02AF97496
:102CF000F328FE740439FF8E828F83A3A3A3E070B0
:102D0000057900022E65EE2468F50EE43FF50F907C
:102D10006060E0850E82850F83F07510B475110830
:102D2000750800750900E5D914F50AE5D95403F5CD
:102D30000B601FEE2483F50CE43FF50D7403650B67
:102D40006059E50A6017EE2467F582E43FF583E0F9
:102D5000700B793DEEFAEFFB12104980A49008AF9A
:102D6000E064016023850C82850D83E060047A04B1
:102D700080027A00E50AC39AFA95E0FB120DFD8AFB
:102D8000088B09EA45097006121343022D01850CD0
:102D900082850D83E070048A108B117A008014E51F
:102DA000D9C0E0EAF8E51028F582E43511F583D0C2
:102DB000E0F00AEAC3950A40E6850C82850D83E0BF
:102DC000602874FC250AF50A78101229FFAC0AA9BC
:102DD0000BEEFAEFFB1211037402122792E9700A4C
:102DE000AA08AB091218BF022D527403650B605478
:102DF000850A0C750D00780C1229FFAC10AD11AAD4
:102E000008AB091210C77402122792850E82850F33
:102E100083E0F87480687005750C7F8002880CE58B
:102E20000CF50D780D122A03780B122A03A90AACAF
:102E300008AD099004F1E0FA7B00120C1D74021237
:102E40002792801C9004C3E06408AC10AD11700997
:102E5000EEFAEFFB1211338007EEFAEFFB1211EDE1
:102E600012134F79017F0C02290474F3122858744D
:102E7000FC12277CEAFEEBFF8909A2AFE433F508D8
:102E8000C2AFEE2463F50AE43FF50B8010AA0AAB4B
:102E90000B12107F1218BF900821E004F0850A82FF
:102EA000850B83E0F8A3E0F9E849602DE82402FAF5
:102EB000E439FBEA2402F50CE43BF50D780C122909
:102EC000FF8A828B83E0FCA3E0F9EEFAEFFB12109D
:102ED000737402122792E960B4900821E0604D906B
:102EE0000822E0F8900821E0C398500C74026509AC
:102EF000703A900823E060348E828F83A3A3A3A34B
:102F0000E0851882851983122F3C74021227C8E8C5
:102F1000122F3C900820E028F074021227E2AA1831
:102F2000AB197901120C7D900821E4F0E508A2E0CC
:102F300092AF74041227927F06022904F0A3E4F0F2
:102F4000900821E0F82200008521878522C622C052
:102F5000E074EB122944A2AFE433F508C2AF759BCD
:102F600000906182E0A2E05030E591A2E0502A7525
:102F700091FE7401652170211230E2121247123065
:102F8000D0122A121235077404122792E9640170D4
:102F90000579011212A1122CC3906182E0A2E550C2
:102FA0005DE591A2E550577591DF9004C3E0640799
:102FB0006005E06408702F1230E274016521703EF4
:102FC0001212471230D0122A121235077404122737
:102FD00092E96401700579011212A17901EEFAEF0C
:102FE000FB122E6A8018E0640D70139004E5E00473
:102FF000F064287002E4F07A00E0F9121355906151
:1030000082E0A2E640030230A5E591A2E640030279
:1030100030A57591BF9004C3E06405700812122FAB
:1030200012123B80031212357521001212BFE99073
:1030300004C4F079001212A1120F3B7A017B0090B8
:1030400004C2E0F912188F907803E0644270569041
:1030500008B3E014F0704EC2AF12305C00782AD092
:10306000E0F618D0E0F6E59F5407F87005750DFFFF
:103070008003750D7FC4C0E07829E6F50A08E6559F
:103080000DF50B740B780A12275AD0E0250AF89038
:103090006270E0A2E740F8E8C333906272F0906299
:1030A00070E0D2E0F0906181E0A2E35009E5E9A28E
:1030B000E3500375E9F7A3E0A2E75009E591A2E721
:1030C000500375917FE508A2E092AF7F080229A323
:1030D0008E828F83E0F8A3E0C82416F582E438F5E9
:1030E00083229004F1E0F875F00DA4C8AAF02AF943
:1030F00074F328FE740439FF22C0E0C0D0C082C03F
:1031000083906183E0A2E05009E5BFA2E05003751F
:10311000BFFEE0A2E15009E5BFA2E1500375BFFD8B
:10312000E0A2E25009E5BFA2E2500375BFFBE0A2B6
:10313000E35009E5BFA2E3500375BFF7E0A2E450F6
:1031400009E5BFA2E4500375BFEFE0A2E55009E531
:10315000BFA2E5500375BFDFE0A2E65009E5BFA2BC
:10316000E6500375BFBFD083D082D0D0D0E032C04C
:10317000E074F2122944E5A7A2E4500FE5A1A2E40D
:10318000500953A7EF75A1EF1231C3E5A7A2E5508F
:103190000CE5A1A2E5500653A7DF75A1DFE5A7A2C4
:1031A000E15009E5A1A2E1500375A1FDE5A7A2E266
:1031B000500CE5A1A2E2500653A7FB75A1FB7F01CD
:1031C0000229A374F81228587521019004C3E06401
:1031D0000670077A007B00121217A2AFE433FED20A
:1031E000AF9004C9E0640170187A207B009004C29B
:1031F000E0F91219C77A207B009004C2E0F9121896
:1032000095906182E0D2E6F09008B0E0602185C63A
:103210002280169004C8E064017008E5C654F844A2
:1032200005F5C653BEFC122F487401652160E4EE1B
:10323000A2E092AF7F010229040000008E238F24B8
:10324000858228858327851882851983E0CEA3E0AF
:10325000CF852882852783EBC9EAC8EDCBECCA75F8
:10326000F010C3E833C8E933C9EA33CAEB33CBC340
:10327000EA9EF526EB9FF525B35004AB25AA26EC74
:1032800033CCED33CDD5F0DAAE23AF242274E9127E
:10329000285874FA12277CEAFEEBFF8C088D09127D
:1032A0001259EAF8EBF9ECFAEDFB8E828F831226C5
:1032B000769004C3E024F7C394055006751001020C
:1032C00033C412118D8A0A8B0BEA450B700302334B
:1032D000C112124D8A0C8B0D12124DEA650C70034F
:1032E000EB650D60ECEEFCEFFDAA18AB1912125362
:1032F000850A82850B83A3A3780C1226349095C48B
:10330000780C1225FB8518828519837814122634CF
:103310009095C478141225FB780C7914121C425035
:103320001F780C79141225C090962C780C121C6210
:103330004047850C10850D11850E12850F138045B1
:1033400090962C8514108515118516128517137803
:1033500010790C1225C07810121C62501C751000D8
:10336000751100751200751301781079141225C0BB
:103370007810790C122587800C7510017511007575
:1033800012007513007409781012256890958C78D6
:103390000C1226347810790C1224CC9004C3E0640B
:1033A00008600AE064066005E06405702090959866
:1033B0007810121C625016909628781012259A8068
:1033C0000C751000751100751200751300850882C8
:1033D000850983781012264374061227927F100203
:1033E000290474F712285812126B9008AEE0640199
:1033F0007010906245E4F0A3F053F4F343FE0C53D5
:1034000090F3121205E5C654B84441F5C6E59E5442
:1034100047644170F8906185740FF09008ACE0F457
:103420007002A3E0602C7508017509009008ACE0FB
:103430007808122769E508F4FAA3E0600814600A26
:1034400014600C800DEA52808008EA52908003EAF2
:1034500052A079007F0202290474F7122858E9FE6D
:10346000EAFF74016E700C7A807B009004C2E0F970
:1034700012188F903830E493F46008E493F9120F37
:103480001D800953C6B8E59E544770FA12120B907E
:1034900008AEE064017003120F539008ACE0F470C2
:1034A00002A3E0602B7508017509009008ACE07874
:1034B00008122769E508FAA3E0600814600A14609E
:1034C0000C800DEA42808008EA42908003EA42A024
:1034D00012118D8A088B09A808A909E8496016E528
:1034E000E170FCE82414F582E439F583E0F874FF18
:1034F00068600288E174016F700A7A019004C2E08A
:10350000F912192502345474F11228588A088B09CB
:103510008C0A8D0B9095C478081225FB740F122726
:10352000C8780C1226349095C4780C1225FB7808C4
:10353000790C121C4290962C50107808790C1225A8
:10354000C07808121C624014800E780C790812258D
:10355000C0780C121C6250047901800279007F0847
:1035600002290474ED1228588A088B098C0A8D0BE5
:103570009095C478081225FB74131227C8780C1292
:1035800026349095C4780C1225FB780C7908121C0F
:103590004240117808790C1225C0AA08AB09AC0A80
:1035A000AD0B8022751000751100751200751301A6
:1035B0007810790C1225C078107908122587AA1086
:1035C000AB11AC12AD137F0C0229049095C478089E
:1035D0001226348A828B83780812260E7F040229F1
:1035E0000474F51228588C828D8378081226348A48
:1035F000828B8378081225D4123635C3E098F0A365
:10360000E099123627401E9095CC78081226348A0D
:10361000828B8378081225AD8E828F83E02420F080
:10362000A3E0344EF080A4F08E828F83C3E0942018
:10363000A3E0944E22EA2404F8E43BF9E8FEE9FF13
:103640008C828D83A3A3A3A3E0F8A3E0F98E828FDD
:10365000832274F5122858E9FE90083CE0FAA3E0B2
:10366000FBEE29F8E433F9749828F582749139F562
:1036700083E02AF508A3E03BF50978081229FF90BA
:1036800095D812265212323C74021227928A088B65
:10369000098C0A8D0B7410780812254FAA08AB0903
:1036A0007F0402290474F11228588A0C8B0D8C0EA9
:1036B0008D0F74111227C8122A1674111227C8E030
:1036C0002401F508A3E03400F509E4F50AF50B78C8
:1036D0000C790812244C9096247808122634780C21
:1036E000790812244CAA0CAB0DAC0EAD0F12323C73
:1036F00074021227928B09EA450960047A0180025C
:103700007A00EC2AFCE43DFD74131227C8E0F8A30C
:10371000E0F9E8FEE9FFECF8EDF97A717B02122698
:10372000F188088909E4F50AF50B8E828F83780801
:10373000122643ECF8EDF97A717B021226F18A0821
:103740008B09740578081227698E828F83A3A3A33F
:10375000A3E508F0A3E509F07F08022904C082C0B0
:1037600083E9906000F0D083D08222C0E074F2122E
:103770002944A2AFE433FED2AFE589A2E14006E5D9
:1037800089A2E25003121799758900758900C2C594
:10379000751A00EEF8EEA2E092AF7F010229A3C0F5
:1037A000E074F2122944A2AFE433FED2AFE58BA25B
:1037B000E05003121799758B00C2E8751A00EEF8F5
:1037C000EEA2E092AF7F010229A3C0E0C0D0E8C022
:1037D000E0E9C0E0A2AFE433F8D2AFC2C7751A0087
:1037E000E8F9E8A2E092AFD0E0F9D0E0F8D0D0D08C
:1037F000E032C2AF02000022C0E074F2122944900D
:10380000193774FFF090193874FFF07C027D007A4C
:10381000377B1912055DE97A047B009018B6E0F950
:0E38200012188FE9758900C2C57F010229A325
:10383000FFFFFFFFFFFFFFFFEAF8EBF9E824FFFAC5
:10384000E934FFFBE84960217800790078DC7905EC
:10385000C3E89401E99400A2D265D03340DA00E8CD
:1038600024FFF8E934FFF980E702013274F71227E8
:10387000EC89087E0080010EEEC395085022EEF818
:103880007900EA28F582EB39F583E0FFEEF879005C
:10389000EC28F582ED39F583E06F60DB790080027A
:1038A00079017F010228BE74F01227ECE9FE7C004A
:1038B000750800750900750A00750B00803A90962E
:1038C00044780C1226347808790C12244CECF879E0
:1038D00000EA28F582EB39F583E0F87900E824D096
:1038E000F50CE934FFF50DE50D3395E0F50EF50F18
:1038F0007808790C1225870CECC39E500FECF879F0
:1039000000EA28F582EB39F583E070B2AA08AB092A
:10391000AC0AAD0B7F080228BE74F71227EC74EFD7
:1039200012277C909126AC18AD19741112268F784D
:10393000757918888289837430F088828983A3A876
:1039400082A983888289837478F088828983A3A876
:1039500082A983EA2406FA50010B7E06806CEA24D1
:10396000FFF582EB34FFF583AA82AB83E0C4540FEA
:10397000FC7D00851882851983E5822CF582E5831C
:103980003DF583E0C0E088828983D0E0F0888289B9
:1039900083A3A882A9838A828B83E0FC7D00EC54F8
:1039A0000FFCED5400FD851882851983E5822CF506
:1039B00082E5833DF583E0C0E088828983D0E0F032
:1039C00088828983A3A882A9831EEE709188828948
:1039D000837400F07A757B1874111227927F0102AC
:1039E00028BEC082C0837CBD7D177AB6798012194B
:1039F00091E9D083D08202013274F71227ECE9FEFC
:103A0000EE6003023A949017BD7404F09017BE74F0
:103A100000F09017BF7400F09017C07400F07CE5C0
:103A20007D927AC17B17121BEF9017CD7400F07C4A
:103A30001C7D957ACE7B17121BEF9017D57400F082
:103A40007C0D7D0079007AD67B1712184D9017F007
:103A50007400F09017F17400F07C787D0079007AA2
:103A6000F37B1712184D90186B7400F0A37400F0DC
:103A700090186D7400F090186E7400F090186F74C8
:103A800000F090187074F4F0A37401F09018727440
:103A900000F0802B74016E70267C0D7D0079007A19
:103AA000D67B1712184D9017F07400F09017F17430
:103AB00000F07C787D0079007AF37B1712184D7C3A
:103AC000007D0079007A097B0412160DE9121A4B69
:103AD0007F010228BE74F41227EC74D312277C9065
:103AE00017BDE0F50875090078081229FF7C9E7D56
:103AF0008E74021227DA121BEF7402122792AA1890
:103B0000AB1912182F8A088B09AC08AD09AA18AB9B
:103B1000191217FF7A647B00121A339017BEE0F572
:103B20000875090078081229FF7C3C7D8F74021209
:103B300027DA121BEF7402122792AA18AB19121877
:103B40002F8A088B09AC08AD09AA18AB191217FF08
:103B50007A647B00121A339017BFE0F508750900EC
:103B600078081229FF7CEF7D8E74021227DA121B6F
:103B7000EF7402122792AA18AB1912182F8A088B19
:103B800009AC08AD09AA18AB191217FF7A647B00BB
:103B9000121A339017C0E0F5087509007808122949
:103BA000FF7C407D9074021227DA121BEF74021220
:103BB0002792AA18AB1912182F8A088B09AC08ADE6
:103BC00009AA18AB191217FF7A647B00121A337511
:103BD00008C175091778081229FF7CCD7D8F740202
:103BE0001227DA121BEF7402122792AA18AB1912CD
:103BF000182F8A088B09AC08AD09AA18AB1912173F
:103C0000FF7A647B00121A339017CDE0F50875092E
:103C10000078081229FF7CFB7D8F74021227DA12CC
:103C20001BEF7402122792AA18AB1912182F8A08D8
:103C30008B09AC08AD09AA18AB191217FF7A647B7F
:103C400000121A337508CE75091778081229FF7CFF
:103C5000297D9074021227DA121BEF740212279248
:103C6000AA18AB1912182F8A088B09AC08AD09AA3B
:103C700018AB191217FF7A647B00121A339017D50C
:103C8000E0F50875090078081229FF7C127D907410
:103C9000021227DA121BEF7402122792AA18AB192C
:103CA00012182F8A088B09AC08AD09AA18AB191293
:103CB00017FF7A647B00121A337508D675091778D6
:103CC000081229FF7CB97D8E74021227DA121BEFCD
:103CD0007402122792AA18AB1912182F8A088B099E
:103CE000AC08AD09AA18AB191217FF7A647B001251
:103CF0001A33750800750900023D8A9092A4742059
:103D00001227E2740D12268F750A0C750B00780AC3
:103D10001229FFA808A909E875F00CA4C8AAF07533
:103D2000F000A42AFA75F00CE9A42AF974F328FC2F
:103D3000741739FD74221227DA121835740212270B
:103D40009274201227D2880A890B780A1229FF78E8
:103D5000081229FF7C237D9374041227DA121BEFCB
:103D60007404122792AA18AB1912182F8A0A8B0B07
:103D7000AC0AAD0BAA18AB191217FF7AC87B001258
:103D80001A330508E508700205099017F0E0F87984
:103D900000C3E50898E50999A2D265D03350030223
:103DA0003CFB90186B122A167C587D8E74021227E9
:103DB000DA121BEF7402122792AA18AB1912182FED
:103DC0008A088B09AC08AD09AA18AB191217FF7A3B
:103DD000647B00121A3390186DE0F5083395E0F516
:103DE0000978081229FF7CE47D8F74021227DA1209
:103DF0001BEF7402122792AA18AB1912182F8A0807
:103E00008B09AC08AD09AA18AB191217FF7A647BAD
:103E100000121A3390186FE0F5087509007808123F
:103E200029FF7C097D8F74021227DA121BEF7402BE
:103E3000122792AA18AB1912182F8A088B09AC08FE
:103E4000AD09AA18AB191217FF7A647B00121A3356
:103E5000901870122A167C2E7D8E74021227DA12A8
:103E60001BEF7402122792AA18AB1912182F8A0896
:103E70008B09AC08AD09AA18AB191217FF7A647B3D
:103E800000121A33901872E0F508750900780812CC
:103E900029FF7CD47D8E74021227DA121BEF740284
:103EA000122792AA18AB1912182F8A088B09AC088E
:103EB000AD09AA18AB191217FF7A647B00121A33E6
:103EC000742D1227927F040228BEC082C0839017EF
:103ED000CDE0F9D083D082020132C082C083121AB1
:103EE0005DE9640170109018EBE0640270047901E0
:103EF00080127900800E9018F6E064067004790153
:103F000080027900D083D08202013274F41227EC4F
:103F100074F412277CEAFEEBFF121A5DE96401607B
:103F200003023FD4750800800205089017F0E0F8FE
:103F3000E508C3985033AA18AB19A908121A6FE9FB
:103F40006027750A0C750B00780A1229FFEEFCEF4A
:103F5000FD74021227DA1218477402122792E960E0
:103F6000C8E5089017F2F0806B75080C75090078A9
:103F7000081229FFEEFCEFFD9017F1E0F87900E858
:103F800075F00CA4C8AAF075F000A42AFA75F00C1C
:103F9000E9A42AF974F328FA741739FB1218357456
:103FA000021227929017F1E09017F2F09017F1E0CB
:103FB0002401F09017F1E075F00A84E5F09017F114
:103FC000F09017F0E0C3940A50079017F0E0240136
:103FD000F0121A4B740C1227927F040228BE74F55B
:103FE0001227EC890AEAFEEBFF121A5DE964017000
:103FF000479017F0E0F8E50AC398503C75080C7537
:10400000090078081229FFA80A7900E875F00CA4C5
:10401000C8AAF075F000A42AFA75F00CE9A42AF9F0
:1040200074F328FC741739FDEEFAEFFB121835749F
:10403000021227927901800279007F030228BE02D2
:10404000013274F71227ECE9FEEEFA79011217BD7E
:10405000E943FD60EEF8EEA2E092867F010228BE01
:1040600074EC1227EC7E31750C00750D00750E4056
:10407000750F40121BAD8A088B09AA08AB09EEF830
:104080007900EAC398F508EB99F509E5093395E05D
:10409000F50AF50B7808121C819095887810122685
:1040A00034780C7910121EA77808790C12226678E1
:1040B000081229FB909588122652121BE3740412F1
:1040C00027927F0C0228BE74F51227EC7800790045
:1040D0007C007D007E007F007508E875090390185C
:1040E0008EE06405600302426890188FE0F8A3E058
:1040F000F9E875F002A4C885F00A75F000A4250A55
:10410000F50A75F002E9A4250AF9748428F5827489
:104110001839F583EAF0A3EBF090188FE02401F052
:10412000A3E03400F090188FE0F8A3E0F97A057B63
:10413000001226E990188FEAF0A3EBF078007900DE
:1041400002423AE8FAE9FBEA75F002A4CA85F00AED
:1041500075F000A4250AF50A75F002EBA4250AFB08
:1041600074842AF58274183BF583E0FAA3E0FBC35C
:10417000EE9AEF9BA2D265D0335028E8FAE9FBEA29
:1041800075F002A4CAAEF075F000A42EFE75F00220
:10419000EBA42EFB74842AF58274183BF583E0FEB1
:1041A000A3E0FFE8FAE9FBEA75F002A4CA85F00A89
:1041B00075F000A4250AF50A75F002EBA4250AFBA8
:1041C00074842AF58274183BF583C3E09508A3E054
:1041D0009509A2D265D033502EE8FAE9FBEA75F0D2
:1041E00002A4CA85F00875F000A42508F50875F04A
:1041F00002EBA42508FB74842AF58274183BF5832E
:10420000E0F508A3E0F509E8FAE9FBEA75F002A495
:10421000CA85F00A75F000A4250AF50A75F002EBCC
:10422000A4250AFB74842AF58274183BF583E02CDC
:10423000FCA3E03DFD08E8700109C3E89405E9949A
:1042400000A2D265D0335003024143ECC39EF8ED87
:104250009FF9E8C39508F8E99509F97A037B0012FC
:1042600026E9E8FAE9FB803690188EE0F87900E854
:1042700075F002A4C8ACF075F000A42CFC75F00237
:10428000E9A42CF9748428F582741839F583EAF0CE
:10429000A3EBF090188EE02401F07A007B007F03FE
:1042A0000228BE74F01227EC74E012277CE9FEEEBF
:1042B00090186DF0121A63E97003024350EEFA335E
:1042C00095E0FB121A818A088B098C0A8D0B909657
:1042D0004C780C1226347808790C121EA778081234
:1042E0001CF9AA08AB09121A878A088B09780812E8
:1042F00029FFEEF404F50875090078081229FF7CFF
:10430000377D9174041227DA121BEF74041227927E
:10431000901873E0603AAA18AB19121C018A088B36
:1043200009AC08AD09AA18AB191217FFAA18AB19E6
:10433000121C018A088B09AC08AD09AA18AB191226
:10434000055DE97A107B009018B6E0F912188FE944
:1043500074201227927F080228BE74F61227EC748C
:10436000E812277C908F55AC18AD19741812268F5F
:104370007508CE75091778081229FF7C1F7D927485
:10438000021227DA121BEF7402122792AA18AB1935
:1043900012182F8A088B09AC08AD09AA18AB19129C
:1043A00017FF74181227927F020228BE7AC17B176A
:1043B000020132C082C083121A63E97004C2BD8058
:1043C00005D2BD121ACFD083D082020132C082C082
:1043D000839017D5E0F9D083D08202013274F012B5
:1043E00027EC79067ACE7B17121A3F8A0C8B0D8C3C
:1043F0000E8D0F850C08850D09850E0A850F0B9013
:1044000095D8780C1226347808790C1224CCAA0C92
:10441000AB0DAC0EAD0F7F080228BEC082C08390EA
:1044200017C0E064027004790180027900D083D063
:1044300082020132C082C0839017C0E0700479010B
:1044400080027900D083D08202013274F61227EC08
:10445000901874E06403700479008076901874E01A
:1044600064016008901874E0640470419017F0E0F3
:10447000605E75080C75090078081229FF9017F224
:10448000E0F87900E875F00CA4C8ACF075F000A471
:104490002CFC75F00CE9A42CF974F328FC74173982
:1044A000FD12183574021227927901802590187434
:1044B000E06402701B75080C75090078081229FF6A
:1044C0007CE37D171218357402122792790180025D
:1044D00079007F020228BE74F61227EC901870E073
:1044E000F508A3E0F509AA08AB09E4FCFD7F020288
:1044F00028BE74E91227EC74B912277CEAFEEBFFA0
:104500008C088D0975140175150074046508700414
:1045100074006509703479047C6F7D95EEFAEFFBC9
:10452000121A39E960247C7E7D95AA18AB19121BFA
:10453000EFAA18AB1912182F8A088B09AC08AD091D
:10454000AA18AB191217FF0254FC7408650870040E
:1045500074006509701679087C617D94EEFAEFFBB2
:10456000121A39E96006121A570254FC740A6508D7
:10457000700474006509600302463F79077CF67D8C
:1045800094EEFAEFFB121A39E9700302463F8E826D
:104590008F83A3A3A3A3A3A3A3E024D0604B1460A1
:1045A0004814604514604214603F24F560030246DD
:1045B000399017BDE0F50875090078081229FF7CCD
:1045C000FF7D9274021227DA121BEF7402122792F7
:1045D000AA18AB1912182F8A088B09AC08AD09AAC2
:1045E00018AB191217FF0254FC8E828F83A3A3A36A
:1045F000A3A3A3A3E024D09017BDF0121A4B9017E9
:10460000BDE0F50875090078081229FF7C177D9335
:1046100074021227DA121BEF7402122792AA18AB47
:104620001912182F8A088B09AC08AD09AA18AB1902
:104630001217FF7515010254FC7514000254FC7426
:104640000A6508700474006509701679077CE67DB8
:1046500094EEFAEFFB121A39E96006751400025461
:10466000FC740A6508700474006509701679077C8B
:10467000DE7D94EEFAEFFB121A39E960067514003C
:104680000254FC740A650870047400650960030232
:10469000475079077CB67D94EEFAEFFB121A39E9A0
:1046A00070030247508E828F83A3A3A3A3A3A3A367
:1046B000E024D0604514604214603F24F36003029C
:1046C000474A9017C0E0F50875090078081229FFDD
:1046D0007CFF7D9274021227DA121BEF74021227FC
:1046E00092AA18AB1912182F8A088B09AC08AD09C9
:1046F000AA18AB191217FF0254FC8E828F83A3A352
:10470000A3A3A3A3A3E024D09017C0F0121A4B9048
:1047100017C0E0F50875090078081229FF7C177D9D
:104720009374021227DA121BEF7402122792AA184E
:10473000AB1912182F8A088B09AC08AD09AA18AB5F
:10474000191217FF7515010254FC7514000254FC70
:10475000E508C3940AF8E5099400F9C3E8940BE965
:104760009400400302482B79077CC67D94EEFAEF53
:10477000FB121A39E9700302482B8E828F83A3A3A0
:10478000A3A3A3A3A3E0643F70357508C1750917FF
:1047900078081229FF7C0B7D9374021227DA121B12
:1047A000EF7402122792AA18AB1912182F8A088BDD
:1047B00009AC08AD09AA18AB191217FF0254FC7C0A
:1047C0000C7D0079007AC17B1712184DE50824F999
:1047D000F508E50934FFF50978081229FFEE2407EA
:1047E000FCE43FFD7AC17B17121835740212279240
:1047F000121A4B7508C175091778081229FF7C2F0A
:104800007D9374021227DA121BEF7402122792AA08
:1048100018AB1912182F8A088B09AC08AD09AA1811
:10482000AB191217FF7515010254FC740A65087064
:104830000474006509703C79087CFE7D93EEFAEF04
:10484000FB121A39E9602C7C827D93AA18AB1912ED
:104850001BEFAA18AB1912182F8A088B09AC08ADE8
:1048600009AA18AB191217FF7900121A5175150110
:104870000254FC740A6508700474006509701679A6
:10488000087C107D94EEFAEFFB121A39E960067588
:1048900015010254FC740A6508700474006509600F
:1048A0000302496D79077CCE7D94EEFAEFFB121A74
:1048B00039E9700302496D8E828F83A3A3A3A3A35A
:1048C000A3A3E024D0604214603F24F260030249B5
:1048D000679017CDE0F50875090078081229FF7C6C
:1048E000FF7D9274021227DA121BEF7402122792D4
:1048F000AA18AB1912182F8A088B09AC08AD09AA9F
:1049000018AB191217FF0254FC8E828F83A3A3A346
:10491000A3A3A3A3E024D0F9E970089017CD7400F5
:10492000F080069017CD7401F0121A4B9017CDE06D
:10493000F50875090078081229FF7C177D93740229
:104940001227DA121BEF7402122792AA18AB19125F
:10495000182F8A088B09AC08AD09AA18AB191217D1
:10496000FF7515010254FC7514000254FC740A65AD
:1049700008700474006509701079087C587D94EE05
:10498000FAEFFB121A39E97022740F65087004748B
:104990000065096003024A4C79077CEE7D94EEFACB
:1049A000EFFB121A39E97003024A4C8E828F83A3FF
:1049B000A3A3A3A3A3A3E0643F70357508CE750934
:1049C0001778081229FF7CF27D9274021227DA12FE
:1049D0001BEF7402122792AA18AB1912182F8A081B
:1049E0008B09AC08AD09AA18AB191217FF0254FCC9
:1049F00075080675090078081229FFEE2407FCE403
:104A00003FFD7ACE7B171218357402122792901749
:104A1000D47400F0121A4B7508CE75091778081275
:104A200029FF7C2F7D9374021227DA121BEF740288
:104A3000122792AA18AB1912182F8A088B09AC08F2
:104A4000AD09AA18AB191217FF0254FC740A6508C5
:104A50007004740065096003024B1679077CFE7DC3
:104A600094EEFAEFFB121A39E97003024B168E82AC
:104A70008F83A3A3A3A3A3A3A3E024D060421460C5
:104A80003F24F26003024B109017D5E0F50875093A
:104A90000078081229FF7CFF7D9274021227DA1237
:104AA0001BEF7402122792AA18AB1912182F8A084A
:104AB0008B09AC08AD09AA18AB191217FF0254FCF8
:104AC0008E828F83A3A3A3A3A3A3A3E024D09017D4
:104AD000D5F0121A4B9017D5E0F508750900780843
:104AE0001229FF7C177D9374021227DA121BEF74D0
:104AF00002122792AA18AB1912182F8A088B09AC38
:104B000008AD09AA18AB191217FF7515010254FC5C
:104B10007514000254FCC3E508940AE509940040AA
:104B20004579087C4F7D94EEFAEFFB121A39E96063
:104B3000357508D675091778081229FF7CCB7D9248
:104B400074021227DA121BEF7402122792AA18AB12
:104B50001912182F8A088B09AC08AD09AA18AB19CD
:104B60001217FF0254FC740A65087004740065098A
:104B70006003024C0179087C6A7D94EEFAEFFB1227
:104B80001A39E9607C121A5DE96401706E9095A88B
:104B900074431227E2740412268F7E0090187474F6
:104BA00001F09017F0E070047E0180057E00121A7B
:104BB000E7EEF83395E0F974431227C8E58228F54B
:104BC00082E58339F583E0F5087509007808122934
:104BD000FF7C537D9374021227DA121BEF740212CA
:104BE0002792AA18AB1912182F8A088B09AC08ADA6
:104BF00009AA18AB191217FF0254FC7514000254CD
:104C0000FC741465087004740065096003024CB0FC
:104C100079067C317D95EEFAEFFB121A39E97003C3
:104C2000024CB090967374401227E2740312268FE0
:104C3000750800121A5DE96401706F9018747402AF
:104C4000F0750A0C750B00780A1229FFEE2406FC99
:104C5000E43FFD7AE37B171218357402122792A8FD
:104C600008790074401227C8E58228F582E5833967
:104C7000F583E0F50875090078081229FF7C537D5B
:104C80009374021227DA121BEF7402122792AA18E9
:104C9000AB1912182F8A088B09AC08AD09AA18ABFA
:104CA000191217FF121AE70254FC7514000254FC83
:104CB000740A6508700474006509705579087CF5FC
:104CC0007D93EEFAEFFB121A39E96045121A5DE99D
:104CD000640170377901121A517C007D0079007AE5
:104CE000097B0412160DE97CAE7D93AA18AB19124C
:104CF0001BEFAA18AB1912182F8A088B09AC08AD44
:104D000009AA18AB191217FF0254FC7514000254BB
:104D1000FC740A65087004740065096003024DDACA
:104D200079087C077D94EEFAEFFB121A39E97003DB
:104D3000024DDA121A5DE964016003024DDA121ABB
:104D40005DE964016003024DD49017F0E070247CAB
:104D5000C67D91AA18AB19121BEFAA18AB1912182D
:104D60002F8A088B09AC08AD09AA18AB191217FFD6
:104D70000254FC7E009017F0E0F8EEC39840030266
:104D800054FCEEF87900E875F00CA4C8AAF075F0B0
:104D900000A42AFA75F00CE9A42AF974F328F5089E
:104DA000741739F50978081229FF7CB17D927402D5
:104DB0001227DA121BEF7402122792AA18AB1912EB
:104DC000182F8A088B09AC08AD09AA18AB1912175D
:104DD000FF0E80A17514000254FC740A650870046B
:104DE00074006509704579087C8E7D94EEFAEFFBBE
:104DF000121A39E960357508747509957808122911
:104E0000FF7C797D9574021227DA121BEF7402126F
:104E10002792AA18AB1912182F8A088B09AC08AD73
:104E200009AA18AB191217FF0254FC740A6508701E
:104E300004740065096003024ED879077CBE7D9436
:104E4000EEFAEFFB121A39E97003024ED8121A5D1E
:104E5000E96401707D8E828F83A3A3A3A3A3A3A380
:104E6000E0643F703090186B122A167C157D9574A3
:104E7000021227DA121BEF7402122792AA18AB193A
:104E800012182F8A088B09AC08AD09AA18AB1912A1
:104E900017FF0254FC90186B7410F0A37427F012E3
:104EA0001A4B90186B122A167C117D9274021227ED
:104EB000DA121BEF7402122792AA18AB1912182FDC
:104EC0008A088B09AC08AD09AA18AB191217FF02A2
:104ED00054FC7514000254FC740A650870047400D4
:104EE0006509704A790A7C2B7D94EEFAEFFB121A61
:104EF00039E9603A90186DE0F5083395E0F50978E6
:104F0000081229FF7CD87D9274021227DA121BEF57
:104F10007402122792AA18AB1912182F8A088B094B
:104F2000AC08AD09AA18AB191217FF0254FC740A99
:104F30006508700474006509600302500579077CF8
:104F4000AE7D94EEFAEFFB121A39E97003025005B8
:104F50008E828F83A3A3A3A3A3A3A3E0643F70388F
:104F600090186FE0F50875090078081229FF7CBEDB
:104F70007D9274021227DA121BEF7402122792AA92
:104F800018AB1912182F8A088B09AC08AD09AA189A
:104F9000AB191217FF0254FC8E828F83A3A3A3A325
:104FA000A3A3A3E024D090186FF090186FE0C394EF
:104FB00004400690186F7400F0121A4B90186FE0BE
:104FC000F50875090078081229FF7C177D93740293
:104FD0001227DA121BEF7402122792AA18AB1912C9
:104FE000182F8A088B09AC08AD09AA18AB1912173B
:104FF000FF90186FE0F87403C398F9120BF9E97584
:1050000015010254FC740A65087004740065096097
:105010000F740F650870047400650960030250E6A0
:1050200079077C067D95EEFAEFFB121A39E97003D9
:105030000250E6121A5DE960030250E08E828F830F
:10504000A3A3A3A3A3A3A3E0643F7030901870129E
:105050002A167CD57D9174021227DA121BEF740296
:10506000122792AA18AB1912182F8A088B09AC08BC
:10507000AD09AA18AB191217FF0254FC7906EE24E9
:1050800007FAE43FFB121A3F8A088B098C0A8D0B42
:10509000901870E508F0A3E509F0901870C3E0944B
:1050A00010A3E0942740030254FC121A4B9018708E
:1050B000122A167C117D9274021227DA121BEF74E9
:1050C00002122792AA18AB1912182F8A088B09AC62
:1050D00008AD09AA18AB191217FF7515010254FC87
:1050E0007514000254FC740A6508700474006509A4
:1050F00060030251B179077CA67D94EEFAEFFB12B2
:105100001A39E970030251B18E828F83A3A3A3A33E
:10511000A3A3A3E0643F7038901872E0F508750906
:105120000078081229FF7CFF7D9274021227DA12A0
:105130001BEF7402122792AA18AB1912182F8A08B3
:105140008B09AC08AD09AA18AB191217FF0254FC61
:105150007901EE2407FAE43FFB121A3F8A088B0913
:105160008C0A8D0BE508901872F0901872E0C394C9
:10517000025038121A4B901872E0F5087509007841
:10518000081229FF7C177D9374021227DA121BEF95
:105190007402122792AA18AB1912182F8A088B09C9
:1051A000AC08AD09AA18AB191217FF751501025406
:1051B000FC740A6508700474006509704B790A7CF8
:1051C000777D93EEFAEFFB121A39E9603B121A5D14
:1051D000E96401702D9018747403F07CA37D93AA88
:1051E00018AB19121BEFAA18AB1912182F8A088BCB
:1051F00009AC08AD09AA18AB191217FF121AE70279
:1052000054FC7514000254FC740A650870047400A0
:105210006509703A79077C977D94EEFAEFFB121AD4
:1052200039E9602A121A5DE96401701C90187474DF
:1052300004F08E828F83A3A3A3A3A3A3A3E024D00F
:10524000F9121B1DE90254FC7514000254FC740988
:10525000650870047400650960030254F979067CDE
:10526000237D95EEFAEFFB121A39E970030254F927
:105270008E828F83A3A3A3A3A3A3E0F516E5162430
:10528000CC601814601914601A14601B14700302A7
:1052900053341470030254080254F47E04800A7ECE
:1052A0000580067E0680027E0779801217397A040F
:1052B000EEF91217338A088B09AC08AD098C088DFA
:1052C00009E4F50AF50B7808121C9C909650780CAE
:1052D0001226347808790C121EA7909654780C1276
:1052E00026347808790C12226678081229FB8C087B
:1052F0008D0978081229FFA8167900E824D0F5084E
:10530000E934FFF50978081229FF7CB57D8F740810
:105310001227DA121BEF7408122792AA18AB19127F
:10532000182F8A088B09AC08AD09AA18AB191217F7
:10533000FF0254FC7E117F017508997509017900FF
:105340001217397A02790F1217338A0A8B0BAC0ABB
:10535000AD0BC3EC9508ED9509400478648059C302
:10536000EE9CEF9D40047800804EE508C39EF8E572
:10537000099FF9E82401FAE439FB8A088B097402D1
:10538000780812275AAA08AB09ECC39EF8ED9FF9DA
:10539000E875F019A4C8AEF075F000A42EFE75F003
:1053A00019E9A42EF9E82AF8E93BF9E824FFF8E91D
:1053B00034FFF91226F1E8F8880875090078081218
:1053C00029FF8C088D0978081229FFA8167900E8B2
:1053D00024D0F508E934FFF50978081229FF7C6E1E
:1053E0007D9074061227DA121BEF7406122792AA18
:1053F00018AB1912182F8A088B09AC08AD09AA1826
:10540000AB191217FF0254FC750C00750D00750ED8
:1054100000750F0090624B7401F09061A97401F067
:105420007E00805779001217397A03790E121733EC
:105430008A088B09AC08AD098C088D09E4F50AF5DA
:105440000B7808121C9C9096587810122634780815
:105450007910121EA790965C78101226347808797D
:105460001012204C9096607810122634780879102B
:10547000122266780C790812204C0EEEC39440403C
:10548000A3850C08850D09850E0A850F0B9096489B
:10549000780C1226347808790C12226690624BE060
:1054A000C2E0F09061A9E0C2E0F078081229FB8C1C
:1054B000088D0978081229FFA8167900E824D0F58C
:1054C00008E934FFF50978081229FF7C577D9074AC
:1054D000081227DA121BEF7408122792AA18AB19C8
:1054E00012182F8A088B09AC08AD09AA18AB19123B
:1054F00017FF80087514008003751400E51560110E
:105500007AC87B00121A33C2AF75C9AB75C95B800C
:10551000FEA91474471227927F0F0228BEC082C0D2
:105520008374FE12277C90968CAC18AD197402120D
:10553000268F901891E02401F0A3E03400F0901839
:1055400091C3E09414A3E094004043121601900E1E
:10555000AEE0C0E0851882851983D0E0F0900EACF3
:10556000E0C0E074011227C8D0E0F07C027D00AA00
:1055700018AB1912055DE97A047B009018B6E0F9C2
:1055800012188FE99018917400F0A37400F074025F
:10559000122792D083D08202013274F61227EC7463
:1055A000C812277CE9FE7F01EEA2E5400302563ACD
:1055B000901B35E0C2E5F07C2A7D957A937B18122A
:1055C0001BEF7C3B7D937A9F7B18121BEF901B3463
:1055D000E07004740180027400901B34F0901B345E
:1055E000E06007790112191F8005790012191F90D8
:1055F0001B34E0F50875090078081229FF7CC37D8B
:1056000093740E1227DA121BEF7402122792790696
:10561000740C1227DA1217AB740C1227DA121C0161
:105620008A088B09AC08AD09740C1227DA12180528
:105630007A017B00121A3302584AEEA2E0504290DF
:105640001B35E0C2E0F07C0E7D957A937B18121B2F
:10565000EF7C737D947A9F7B18121BEF121A5DE921
:105660006401600302584A9018EBE0640270030280
:10567000584A7C0A7D007A777B93121AC9E902584E
:105680004AEEA2E45031901B35E0C2E4F07C7C7D10
:10569000947A937B18121BEF7CA87D917A9F7B18DC
:1056A000121BEF901873E07004780180027800E814
:1056B000901873F002584AEEA2E3503B901B35E07D
:1056C000C2E3F07C857D947A937B18121BEF7C8576
:1056D0007D947A9F7B18121BEF121A5DE9640160BA
:1056E0000302584A9018EBE06402700302584A79AA
:1056F00001121B0B02584AEEA2E15020901B35E02C
:10570000C2E1F07CCD7D937A937B18121BEF7C0372
:105710007D917A9F7B18121BEF02584AEEA2E2405D
:1057200003025848901B35E0C2E2F07C987D937AE2
:10573000937B18121BEF7CE47D917A9F7B18121BE0
:10574000EF121A5DE9640160030257EC9018EBE078
:1057500064026039121B11E9F50875090078081216
:1057600029FF7C6B7D9374021227DA121BEF7402FF
:10577000122792AA18AB19121C018A088B09AC08CF
:10578000AD09AA18AB19121AC9E902584A121A63CC
:10579000E9700302584A9018B3E060047800800270
:1057A0007801E89018B3F09018B3E0F50875090097
:1057B00078081229FF7C567D9274021227DA121B98
:1057C000EF7402122792AA18AB19121C018A088BD7
:1057D00009AC08AD09AA18AB1912055DE97A107B6E
:1057E000009018B6E0F912188FE9805E121A63E98A
:1057F00060589018B4E06004780080027801E89066
:1058000018B4F09018B4E0F508750900780812296A
:10581000FF7C497D9274021227DA121BEF74021288
:105820002792AA18AB19121C018A088B09AC08AD83
:1058300009AA18AB1912055DE97A107B009018B619
:10584000E0F912188FE980027F00901B35E0701498
:105850009018B5E0700E9018B57401F07A017907D0
:105860001217BDE9EF605675089F75091878081280
:1058700029FF7C457D95740E1227DA121BEF740206
:10588000122792901B35E06006780079008004783A
:10589000807900E84408F9740C1227DA1217AB7506
:1058A000089375091878081229FF7C457D95740EB8
:1058B0001227DA121BEF7402122792805475089F88
:1058C00075091878081229FF7C387D95740E122707
:1058D000DA121BEF7402122792901B35E0600678F3
:1058E000007900800478807900E84408F9740C128B
:1058F00027DA1217AB75089375091878081229FF73
:105900007C387D95740E1227DA121BEF7402122771
:1059100092740C1227D28808890978081229FF7C12
:10592000797D9574261227DA121BEF7402122792E2
:10593000121A63E9702174241227DA121C018A08F2
:105940008B09AC08AD0974241227DA1217FF7A010B
:105950007B00121A33802674241227DA121C018A63
:10596000088B09AC08AD0974241227DA12055DE929
:105970007A107B009018B6E0F912188FE97438128B
:1059800027927F020228BE74EC1227EC74C0122703
:105990007CEAFEEBFF8C088D09C3E5089409E50954
:1059A0009400403979087C467D94EEFAEFFB121A98
:1059B00039E960298E828F83A3A3A3A3A3A3A3A302
:1059C000E0F8743068700B7A0079021217BDE902B2
:1059D0005D347A0179021217BDE9025D34C3E5082E
:1059E0009409E5099400403979087C3D7D94EEFAEC
:1059F000EFFB121A39E960298E828F83A3A3A3A338
:105A0000A3A3A3A3E0F8743068700B7A00790412A2
:105A100017BDE9025D347A0179041217BDE9025D10
:105A200034C3E5089409E5099400403579087C34CD
:105A30007D94EEFAEFFB121A39E960258E828F838E
:105A4000A3A3A3A3A3A3A3A3E0F874306870099051
:105A500018737400F0025D349018737401F0025DE5
:105A600034C3E5089407E50994005003025D3479D6
:105A7000067C237D95EEFAEFFB121A39E9700302DA
:105A80005D348E828F83A3A3A3A3A3A3E0FEEE24A1
:105A9000CC601814601914601A14601B147003028F
:105AA0005B52147003025C3C025D347F04800A7F09
:105AB0000580067F0680027F0779801217397A04F5
:105AC000EFF91217338A088B09AC08AD098C088DE1
:105AD00009E4F50AF50B7808121C9C909650780C96
:105AE0001226347808790C121EA7909654780C125E
:105AF00026347808790C12226678081229FB8C0863
:105B00008D0978081229FFEEF87900E824D0F5080D
:105B1000E934FFF50978081229FF7CB57D8F7408F8
:105B20001227DA121BEF7408122792AA18AB191267
:105B30001C018A088B09AC08AD09AA18AB1912051B
